:02000000392C99
:100006008312031387164408283E840000088800DC
:100016001A30FC00F830FD00FD0B0F28FC0B0F28F2
:100026000000871207174508283E8400000888004C
:100036001A30FC00F830FD00FD0B1F28FC0B1F28B2
:100046000000071387174608283E8400000888002A
:100056001A30FC00F830FD00FD0B2F28FC0B2F2872
:06006600000087130800F2
:10006C00831203134408013A031D4A280716423031
:10007C0088001A30FC00F830FD00FD0B4328FC0B07
:10008C004328000007125B284408023A031D5B2832
:10009C0007160C3088001A30FC00F830FD00FD0B00
:0C00AC005528FC0B552800000712080026
:1000B80083120313F8010830FC00700DF80D740862
:1000C800F80203186928F8070310F00DFC0B6128E3
:0200D80008001E
:1000DA00831603178C1C732800006D2883120313E0
:1000EA003F0803178D000313400803178C0083167B
:1000FA008C130C150B08F0008B1355308D00AA30A9
:10010A008D008C14F01B8B288B138C288B170C11E9
:02011A000800DB
:10011C00831203133F08C40036204008B9000A308C
:10012C00F4004008F0005C207808F0007008C30070
:10013C004308B8000A30F4004008F0005C20700856
:10014C00C2004208B9000A30F4004208F0005C20FA
:10015C007808F0007008C1004108BB000A30F400B8
:10016C004208F0005C207008B9007008BA007008F2
:0E017C00C4004108C5004308C6000320080067
:10018A008312031386170914A50180302506F0008F
:10019A008030323A70020318D9280130BF0027088C
:1001AA00C0008E20A50ACA28091086130230B200A0
:0C01BA006630BF000230C0006D2008005D
:1001C6008312031306178914A50180302506F00053
:1001D6008030253A70020318F7280130BF0027083F
:1001E600C0008E20A50AE828061389100230A40054
:0E01F6005530BF000230C0006D20C52008004B
:10020400831203138616A50180302506F000803082
:10021400143A7002031815290130BF002708C000E2
:100224008E20A50A062986120230A6004430BF009B
:0A0234000230C0006D20E320080036
:10023E0083120313061C3D29D030FC00C930FD008B
:10024E00FD0B2729FC0B272900000000061C3D2969
:10025E0080303E06F00080307002031D3829FF30DA
:10026E003D0203183D29BD0A0319BE0A861C5A29F0
:10027E00D030FC00C930FD00FD0B4329FC0B432997
:10028E0000000000861C5A298030F00080303E06A7
:10029E007002031D54293D08003C03185A290130F1
:1002AE00BD02031CBE033D08F0003E08F10008002D
:1002BE0083120313861DA9292108013A031DA929BA
:1002CE000B30FB002630FC005D30FD00FD0B6D2970
:1002DE00FC0B6D29FB0B6D2900000000861DA92962
:1002EE000330A1000230BF000330C0006D2011307A
:1002FE0083120313BF002008C0006D20223083122A
:10030E000313BF002308C0006D20043083120313B3
:10031E00A50080302506F0008030003A7002031CE4
:10032E00A929A20180302206F0008030323A7002F4
:10033E000318A729BF012508C0008E20A20A9929FB
:10034E00A5039029861D162A2108033A031D162A95
:10035E000B30FB002630FC005D30FD00FD0BB52997
:10036E00FC0BB529FB0BB52900000000861D162AD3
:10037E000130A1000230BF000130C0006D20831299
:10038E000313B3013330BF00C0016D20013083125F
:10039E000313A6004430BF000130C0006D200130B1
:1003AE0083120313A4005530BF000130C0006D202E
:1003BE00013083120313B2006630BF000130C0005B
:1003CE006D2083120313A701A0011130BF00C001DD
:1003DE006D2083120313A3012230BF00C0016D20D4
:1003EE00013083120313B5000430A50080302506BA
:1003FE00F0008030003A7002031C162AA2018030F1
:10040E002206F0008030323A70020318142ABF011F
:10041E002508C0008E20A20A062AA503FD29080081
:10042E0083120313061D312A0230FB000430FC0038
:10043E00BA30FD00FD0B212AFC0B212AFB0B212AD1
:10044E000000061D312AB50A3508033A031D312A6C
:10045E000130B5004A2A2008BD00BE011F217008D8
:10046E00A0000130BF007008C0008E20522A230861
:10047E00BD00BE011F217008A3000230BF0070082E
:10048E00C0008E20522A3508013A0319322A350847
:08049E00023A03193E2A08008E
:0E04A6008312031337088A003608820008000C
:1004B40083120313BC0106160915B4018312031336
:1004C4002308330203188D2A0518762A3C08003ABB
:1004D400031D762A3408003A031D752AB30A013035
:1004E400B4000130BC00822A051C822A3C08013A6F
:1004F400031D822A3408013A031D812AB401BC0178
:100504000230BF003308C0008E203330BF003308F0
:10051400C0006D20602A8312031306120911022100
:020524000800CD
:10052600831203133C0803178D0083168C130C14D7
:0805360083120C08F00008001C
:10053E00831203132108013A031DA82A17225F21F3
:10054E009F2A2008A700831203132108033A031DD4
:10055E000A2B2708003C03180A2B23083302031822
:10056E00B92A5A22831203132608013A031DC02A00
:10057E000221831203132408013A031DC72AE32024
:10058E00831203133208013A031DCE2AC5208312AB
:10059E000313A50180302506F0008030193A700251
:1005AE000318E12A0130BF002708C0008E205F210A
:1005BE00A50AD12AA7031130BF002708C0006D205D
:1005CE0083120313B3013330BF00C0016D2001301D
:1005DE0083120313A6004430BF000130C0006D200B
:1005EE00013083120313A4005530BF000130C00048
:1005FE006D20013083120313B2006630BF0001304C
:10060E00C0006D20AA2A013083120313A10002300C
:10061E00BF000130C0006D2083120313A001113002
:10062E00BF00C0016D2083120313A3012230BF004F
:10063E00C0016D20013083120313B5009F2A0800FC
:10064E00023083120313BC0093227008FF3A031D7D
:10065E00372B02300313BF002108C0006D203F2B43
:10066E00023083120313BC00932270080313A100FF
:10067E004E30FC00EB30FD0083120313FD0B432BB9
:10068E00FC0B432B1130BC0093227008FF3A031D64
:10069E00572B11300313BF002008C0006D205F2BB5
:1006AE00113083120313BC00932270080313A000B1
:1006BE004E30FC00EB30FD0083120313FD0B632B59
:1006CE00FC0B632B2230BC0093227008FF3A031DF3
:1006DE00772B22300313BF002308C0006D207F2B21
:1006EE00223083120313BC00932270080313A3005D
:1006FE004E30FC00EB30FD0083120313FD0B832BF9
:10070E00FC0B832B3330BC0093227008FF3A031D81
:10071E00972B33300313BF003308C0006D209F2B7F
:10072E00333083120313BC00932270080313B300FB
:10073E004E30FC00EB30FD0083120313FD0BA32B98
:10074E00FC0BA32B4430BC0093227008FF3A031D10
:10075E00B72B44300313BF002608C0006D20BF2BFB
:10076E00443083120313BC00932270080313A600B7
:10077E004E30FC00EB30FD0083120313FD0BC32B38
:10078E00FC0BC32B5530BC0093227008FF3A031D9F
:10079E00D72B55300313BF002408C0006D20DF2B6C
:1007AE00553083120313BC00932270080313A40068
:1007BE004E30FC00EB30FD0083120313FD0BE32BD8
:1007CE00FC0BE32B6630BC0093227008FF3A031D2E
:1007DE00F72B66300313BF003208C0006D20FF2BCD
:1007EE00663083120313BC00932270080313B20009
:1007FE004E30FC00EB30FD00FD0B032CFC0B032CEC
:02080E000800E0
:1008100053228A110A128000840AB60A0319B70A01
:08082000F003031D082C080081
:10082800831203138719212C071D212C8718212CCB
:10083800071C212C0330F000382C871D2C2C07199D
:100848002C2C871C2C2C071C2C2C0130F000382C4D
:10085800871D372C071D372C8718372C0718372C7E
:0A0868000230F000382CF001080007
:1008720083120313A0010130A100A201A3010130E0
:10088200A400A5010130A600A701C030A800F930DC
:10089200A900A430AA00B030AB009930AC0092306D
:1008A200AD008230AE00F830AF008030B000903042
:1008B200B1000130B200B301B4010130B50006301D
:1008C20083169F0007309C00851485186A2C05103A
:1008D2006B2C05148512851A702C0512712C0516C5
:1008E200051A752C8511762C851585197A2C05111A
:1008F2007B2C051586158619802C0611812C061570
:100902000619852C8610862C861486188A2C0610C9
:100912008B2C06148613861B902C0613912C06171B
:10092200061B952C8612962C8616861A9A2C06126F
:100932009B2C061687158719A02C0711A12C0715C9
:100942000719A52C8710A62C87148718AA2C071024
:10095200AB2C07148713871BB02C0713B12C071776
:10096200071BB52C8712B62C8716871ABA2C0712CA
:10097200BB2C071683128512851AC12C0512C22CB4
:100982000516051AC62C8511C72C85158519CB2C81
:100992000511CC2C05158613861BD12C0613D22CDF
:1009A2000617061BD62C8612D72C8616861ADB2C27
:1009B2000612DC2C06168713871BE12C0713E22C88
:1009C2000717071BE62C8712E72C8716871AEB2CD2
:1009D2000712EC2C071683168801890183128801FD
:1009E200890114247008003A0319F82CF92CF22C0E
:0609F20027239F22FB2CCD
:00000001FF
