:02000000C72B0C
:1000060083120313F8010830FC00700DF80D740814
:10001600F80203181028F8070310F00DFC0B082847
:020026000800D0
:10002800831203130817380886001A30FC00F830CA
:10003800FD00FD0B1D28FC0B1D2800000813881768
:10004800C83086001A30FC00F830FD00FD0B2A2865
:0A005800FC0B2A28000088130800A2
:1000620083120313871307138716142005108514B0
:08007200051585113628080070
:10007A00831603178C1C432800003D2883120313A0
:10008A004F0803178D000313500803178C008316BB
:10009A008C130C150B08F0008B1355308D00AA3009
:1000AA008D008C14F01B5B288B135C288B170C11AA
:0200BA0008003C
:1000BC000A3083120313A6002608003C03189F285D
:1000CC000A30F4002608F00003207808F0007008CD
:1000DC00A8000A30F4002608F00003207008A700DE
:1000EC00A1013230210203189D2808162708383E3A
:1000FC008400000886001A30FC00F830FD00FD0B6F
:10010C008528FC0B85280000081288162808383E24
:10011C008400000886001A30FC00F830FD00FD0B4E
:10012C009528FC0B952800008812A10A7728A603B5
:10013C0062280130A600643026020318C02820086B
:10014C00013A031DAD2805148510051585152008E9
:10015C00023A031DB52805148514051185112008D4
:10016C00033A031DBD2805108514051185151420AF
:06017C00A60AA1280800FC
:0E0182008312031347088A0046088200080013
:100190008312031308164B08383E840000088600BB
:1001A0000D30FC00FB30FD00FD0BD428FC0BD428E7
:1001B00000000000081288164C08383E8400000831
:1001C00086000D30FC00FB30FD00FD0BE528FC0B2C
:1001D000E52800000000881208174D08383E84000A
:1001E000000886000D30FC00FB30FD00FD0BF628FA
:1001F000FC0BF62800000000081388174E08383E54
:100200008400000886000D30FC00FB30FD00FD0B73
:0E0210000729FC0B07290000000088130800D6
:10021E00831203134B0803178D0083168C130C14D3
:08022E0083120C08F000080027
:100236008312031325082206031D362929082306DF
:10024600031D362932082406031D36290030B11B4A
:10025600FF30F00000307006031D332933083106E5
:10026600031D36293B292008013A03193B29442955
:100276000130A0000230CF000130D0003D205E20CA
:10028600892925083506031D5D2929083606031D1B
:100296005D2932083706031D5D290030B11BFF308A
:1002A600F00000307006031D5A2934083106031D7C
:1002B6005D2962292008023A031962296B29023056
:1002C600A0000230CF000230D0003D205E208929F8
:1002D60025082B06031D852929082C06031D8529BB
:1002E60032082D06031D852931082E06031D852992
:1002F6000330A0000230CF000330D0003D205E2046
:0E030600312089290510851005118511080088
:1003140083120313081DAA290230FB000430FC00D9
:10032400BA30FD00FD0B9429FC0B9429FB0B942996
:100334000000081DAA29CB0A0319CC0A00304C0678
:10034400031DA6290A304B06031DAA29CB01CC01A3
:0A0354004B08F0004C08F10008000F
:10035E0083120313051085140515851183120313DB
:10036E002008013A0319C0292008023A0319C029AE
:10037E00922A871707132F08C3000A30F4002F089C
:10038E00F00003207808F0007008CA004A08C20086
:10039E000A30F4002F08F00003207008C900490845
:1003AE00C3000A30F4004908F00003207808F0007A
:1003BE007008C8004808C4000A30F4004908F0006C
:1003CE0003207008C3000A30F40003207808F00000
:1003DE007008C500CB017008CC004808CD004A0853
:1003EE00CE00C8202F08003A031D442A2008013AE7
:1003FE00031D082A6330B3001130CF006330D000E4
:10040E003D20831203132008023A031D152A633080
:10041E00B4002230CF006330D0003D20831203138E
:10042E00A0010230CF00D0013D207830831203139B
:10043E00AF000630B0002430CF007830D0003D2021
:10044E00603083120313CF003008D0003D2083129A
:10045E000313B101B201A901A5010B30FB00263037
:10046E00FC005D30FD00FD0B3A2AFC0B3A2AFB0B1B
:10047E003A2A000000001B21922A0130A60026080D
:10048E00033C031C6E2ACB014508CC004408CD006A
:10049E004208CE00C8201A30FC00F830FD00FD0BDB
:1004AE00562AFC0B562A0000CB014508CC00440806
:1004BE00CD004208CE00C8201A30FC00F830FD00F6
:1004CE00FD0B672AFC0B672A0000A60A462A300895
:1004DE00003C0318732AB0036030CF003008D00000
:1004EE003D20831203133008003A031D912A2F0872
:1004FE00003C0318832AAF030630B0006030CF00F3
:10050E000630D0003D20243083120313CF002F0875
:08051E00D0003D20B5290800C2
:1005260083120313881DAC2A0230FB000430FC0042
:10053600BA30FD00FD0B9D2AFC0B9D2AFB0B9D2A64
:100546000000881DAC2AAA0A2A08043A031DAC2A10
:10055600AA01092B08167F3086001A30FC00F830F5
:10056600FD00FD0BB42AFC0BB42A00000812250876
:10057600CB000030CB1BFF30CC008A217008A500D1
:10058600192B88167F3086001A30FC00F830FD00E3
:10059600FD0BCB2AFC0BCB2A000088122908CB00C6
:1005A6000030CB1BFF30CC008A217008A900192B24
:1005B60008177F3086001A30FC00F830FD00FD0B6E
:1005C600E22AFC0BE22A000008133208CB000030B6
:1005D600CB1BFF30CC008A217008B200192B88177C
:1005E6007F3086001A30FC00F830FD00FD0BF92A3A
:1005F600FC0BF92A000088133108CB000030CB1B16
:10060600FF30CC008A217008B100192B2A08003A65
:100616000319AD2A2A08013A0319C42A2A08023AFC
:0E0626000319DB2A2A08033A0319F22A0800F6
:10063400C1208A110A128000840AC60A0319C70A53
:08064400F003031D1A2B08004E
:10064C00243083120313CB000F217008FF3A031DD3
:10065C00362B24300313CF002F08D0003D203E2B27
:10066C00243083120313CB000F2170080313AF0047
:10067C004E30FC00EB30FD0083120313FD0B422BBC
:10068C00FC0B422B6030CB000F217008FF3A031D8E
:10069C00562B60300313CF003008D0003D205E2B6A
:1006AC00603083120313CB000F2170080313B000CA
:1006BC004E30FC00EB30FD0083120313FD0B622B5C
:1006CC00FC0B622B0230CB000F217008FF3A031D8C
:1006DC00762B02300313CF002008D0003D207E2B58
:1006EC00023083120313CB000F2170080313A000F8
:1006FC004E30FC00EB30FD0083120313FD0B822BFC
:10070C00FC0B822B1130CB000F217008FF3A031D1C
:10071C00962B11300313CF003308D0003D209E2BB5
:10072C00113083120313CB000F2170080313B30095
:10073C004E30FC00EB30FD0083120313FD0BA22B9B
:10074C00FC0BA22B2230CB000F217008FF3A031DAB
:10075C00B62B22300313CF003408D0003D20BE2B23
:10076C00223083120313CB000F2170080313B40043
:10077C004E30FC00EB30FD00FD0BC22BFC0BC22BF2
:02078C00080063
:10078E0083120313A001A1010130A2000330A300C4
:10079E00A401A501A6010130A700A801A901AA0183
:1007AE000430AB000730AC000430AD000530AE00B5
:1007BE007830AF000630B000B101B2010230B300A4
:1007CE00B4010830B5000930B6000230B700C030B1
:1007DE00B800F930B900A430BA00B030BB0099307F
:1007EE00BC009230BD008230BE00F830BF008030B9
:1007FE00C0009030C10083168601870188158819C4
:10080E000A2C08110B2C081508190F2C8810102C07
:10081E0088148818142C0810152C08148813881B9B
:10082E001A2C08131B2C0817081B1F2C8812202C9F
:10083E008816881A242C0812252C08168312860175
:10084E0087018813881B2D2C08132E2C0817081BC4
:10085E00322C8812332C8816881A372C0812382C12
:10086E000816063083169F0007309C00850126234C
:10087E00831203132008013A03194A2C2008023A66
:10088E0003194A2C4C2C5E20AF218312031320082F
:10089E00033A031D542C5E20312093221B21250880
:1008AE00CB002908CC003208CD003108CE00C8207C
:0A08BE0007178713AF21542C632C99
:02400E004A2F37
:00000001FF
